:020000040800F2
:10000000E805002009020008F501000805140008B1
:100010000115000821040008352600080000000032
:10002000000000000000000000000000392100086E
:1000300023040008000000009D0100083D21000885
:1000400023020008230200082302000823020008FC
:1000500023020008230200082302000823020008EC
:1000600023020008230200082302000823020008DC
:1000700023020008230200082302000823020008CC
:1000800023020008230200082302000823020008BC
:1000900023020008230200082302000823020008AC
:1000A000230200082302000823020008230200089C
:1000B000230200082302000823020008230200088C
:1000C000230200082302000823020008230200087C
:1000D000230200082302000823020008230200086C
:1000E000230200082302000823020008230200085C
:1000F000230200082302000823020008230200084C
:10010000230200082302000823020008230200083B
:10011000230200082302000823020008230200082B
:10012000230200082302000823020008230200081B
:10013000230200082302000823020008230200080B
:1001400023020008230200082302000823020008FB
:1001500023020008230200082302000823020008EB
:1001600023020008230200082302000823020008DB
:1001700023020008230200082302000800000000F8
:100180002302000823020008DFF80CD000F0B4F8C6
:100190000048004789270008E80500200A4B012194
:1001A000C90601B53F2072B680F3118862B61960A6
:1001B000CB08064A521E064988B005A80EC0062084
:1001C000C043BFF34F8F004704ED00E0E51B00087C
:1001D000D5010008EFF3148030F0040080F3148898
:1001E000BFF36F8F02480121C9070160FEE70000DD
:1001F00004ED00E008B0002080F31188BDE8014064
:10020000BFF34F8F704700000648804706480047FD
:10021000FEE7FEE7FEE7FEE7FEE7FEE7FEE7FEE7B6
:10022000FEE7FEE7E1210008890100082DE9F05F03
:100230000546002092469B46884606468146402455
:100240001BE0284641464746224600F044F8534604
:100250005A46C01A914110D311461846224600F062
:100260002BF82D1A67EB01084F462246012000218A
:1002700000F022F817EB00094E41201EA4F1010402
:10028000DFDC484631462A46434600F000B830BC21
:10029000BDE8C09FD2B201E000F8012B491EFBD29D
:1002A00070470022F6E710B513460A460446194681
:1002B000FFF7F0FF204610BD202A04DB203A00FAA9
:1002C00002F1002070479140C2F1200320FA03F3AD
:1002D000194390407047202A04DB203A21FA02F0AB
:1002E0000021704721FA02F3D040C2F12002914070
:1002F0000843194670470000064C074D06E0E068C9
:1003000040F0010394E8070098471034AC42F6D35C
:10031000FFF73EFFB8280008D828000801A103A075
:1003200002F08AB9362E392E3200000053696D7002
:100330006C6520426C696E6B79206578616D706CBC
:10034000650A51502F432076657273696F6E3A20AB
:1003500025730A5072657373204374726C2D4320A9
:10036000746F20717569742E2E2E0A0000222021D0
:100370004FF0904000F08BB9012220214FF09040C7
:1003800000F085B9074810B504680749204601F018
:10039000B9F8214604F124000023BDE810400422EE
:1003A00001F05ABD6C280008AD03000810B50446E2
:1003B0004FF4FA710A46243001F01EFD0148A06096
:1003C000082010BDC903000810B50988012905D00F
:1003D000042907D005498160002010BDFFF7C6FF42
:1003E000032010BD02498160082010BDD11A000809
:1003F000F503000810B50988012905D0042907D0A4
:1004000005498160002010BDFFF7B6FF032010BD35
:1004100002498160082010BDD11A0008C9030008F4
:10042000FEE77047704700002DE9F04FDFF8349287
:10043000002309F1040A012403250AF1040B87B003
:100440000F270BF1040E04E104FA03F632407CD0CE
:10045000D1F804C0BCF1010F08D0BCF1020F05D0E7
:10046000BCF1110F02D0BCF1120F29D1D0F808C095
:10047000CDF800C04FEA430C05FA0CF8CDF80CC0DB
:10048000DDF800C02CEA080CCDF800C0D1F80C80D3
:10049000DDF80CC008FA0CF8DDF800C048EA0C08DA
:1004A000C0F80880D0F8048091F804C028EA060853
:1004B000CCF3001C0CFA03FC4CEA080CC0F804C096
:1004C000D1F804806FEA080C5FEA8C7C09D1D0F87F
:1004D0002CC02CEA060CC8F3C0069E4046EA0C0667
:1004E000C662D0F80CC04FEA430805FA08F62CEAB9
:1004F000060CCDF8148002968E6806FA08F646EAD5
:100500000C06C6604E68022E01D0122E15D1DE08F0
:1005100000EB86060396366A4FEA437C4FEADC68B6
:1005200007FA08FC26EA0C06D1F810C00CFA08FC01
:100530004CEA060C039EC6F820C00668DDF808C029
:1005400026EA0C0691F804C000E081E0DDF8148092
:100550000CF0030C0CFA08FC4CEA060CC0F800C0C6
:100560004E68F60074D5404ED6F860C04CF0010CD1
:10057000C6F860C0366E23F0030C06F00106009644
:100580003A4E66440296D6F808C09E074FEA16789F
:1005900007FA08F62CEA060CB0F1904F04D0344E5E
:1005A000B04203D101261BE0002619E0314EB042D3
:1005B00001D1022614E0304EB04201D103260FE0F3
:1005C0002E4EB04201D104260AE02D4EB04201D198
:1005D000052605E02B4EB04201D1062600E0072695
:1005E00006FA08F646EA0C06DDF808C0CCF8086002
:1005F000D9F80060CC46D1F8048096435FEAC83849
:1006000000D51643CCF80060DAF80060D446D1F883
:10061000048096435FEA883800D51643CCF8006022
:10062000DBF80060DC46D1F8048096435FEAC82816
:1006300000D51643CCF80060DEF80060F446D1F82F
:10064000048096435FEA882800D51643CCF8006002
:100650005B1C0A6832FA03F67FF4F6AE07B000F0CE
:1006600013B80000000401400010024000000140E7
:100670000004004800080048000C00480010004832
:10068000001400480018004830BCBDE8C08F0AB113
:10069000816170478162704701488068704700003F
:1006A0000C00002002488168027811448160704784
:1006B0000C000020094810B50168002441F4807145
:1006C0000160032000F064F8002000F009F808B190
:1006D000012401E000F026F8204610BD0020024071
:1006E00070B50E4E05460024307898B14FF47A71FB
:1006F000B1FBF0F00A490968B1FBF0F000F008FE28
:1007000040B9102D06D200222946501E00F020F8D4
:10071000756000E00124204670BD00000C00002040
:1007200018000020094808B5016E41F0010101667A
:10073000016E01F001010091816D41F080518165F0
:10074000806D00F08050009008BD00000010024055
:10075000F0B40E4B1B680C46C3F30223C3F107052C
:10076000042D00D90425191D072901D2002300E01A
:10077000DB1E012606FA05F1491E214099409E40E4
:10078000761E16403143F0BC01F066BF0CED00E070
:10079000064900F0070208684FF6FF03184040EAD8
:1007A0000220034A10430860704700000CED00E08F
:1007B0000000FA051649B0F5007F0868C0F3412033
:1007C00009D0022805D0086820F4C06040F4806099
:1007D0000860002070470128FBD0086820F4C06042
:1007E00040F4007008600B483222006850430A4A07
:1007F000B0FBF2F0401C00E0401E4A69520501D5F2
:100800000028F9D148694005E3D50320704700006E
:10081000007000401800002040420F0002480068AD
:1008200000F4C06070470000007000402DE9F84FF0
:10083000044600270088E54D3E46010504F1200BE3
:100840001DD5606E78B1B0F5800F11D0B0F5000FF6
:1008500004D0B0F5400F22D001270FE0E86840F443
:100860008030E8601BE00021201D01F00DFB03E05B
:100870000021584601F09EFB070010D03E4620881C
:10088000C00426D5A06EC0B1B0F1807F1AD0B0F1FF
:10089000007F0DD0B0F1407F19D0012718E0D5F8C6
:1008A0008800616E20F440000843C5F88800E6E740
:1008B000E86840F48030E86009E00021201D01F084
:1008C000E3FA03E00021584601F074FB0746F7B154
:1008D0003E46206880033AD5A86D4FF00008C0005E
:1008E00009D4A86D40F08050A865A86D4FF00108AC
:1008F00000F080500090DFF8D8A2DAF8001041F440
:100900008071CAF80010FFF7C7FE814610E0D5F8E5
:100910008800A16E20F040700843C5F88800D8E731
:10092000FFF7BAFEA0EB0900022801D9032705E072
:10093000DAF80000C005F3D5002F7CD04FEA070697
:10094000B8F1000F03D0A86D20F08050A865207882
:10095000C00707D0D5F88800A16B20F0030008433A
:10096000C5F888002078800707D5D5F88800E16BA6
:1009700020F00C000843C5F888002078400707D510
:10098000D5F88800216C20F030000843C5F88800B5
:100990002078000707D5D5F88800616C20F0C000EA
:1009A0000843C5F888002078C00607D5D5F8880028
:1009B000A16C20F440700843C5F8880020788006B8
:1009C00007D5D5F88800E16C20F440600843C5F8ED
:1009D00088002088800507D5D5F88800E16D20F4CF
:1009E00040200843C5F888002088400507D5D5F881
:1009F0008800216E20F440100843C5F88800207854
:100A0000400607D5D5F88800216D20F440500843F2
:100A1000C5F888002078000607D5D5F88800616DF4
:100A200020F440400843C5F888002088C00509D557
:100A3000D5F8880000E01CE0A16D20F440300843A8
:100A4000C5F8880020884FF0006780044FF0806868
:100A50004FD5D5F88800E16E20F040600843C5F816
:100A60008800E06EB8423CD1E86840F48010E8604D
:100A70003FE0D5F8900010F4407015D0D4F8841001
:100A8000814211D0D5F89000D5F8901020F4407034
:100A900041F48031C5F89010D5F8901021F48031E0
:100AA000C5F89010C5F89000C00710D0FFF7F4FD0E
:100AB000074641F2883906E0FFF7EEFDC11B4945C4
:100AC00001D903263CE7D5F890008007F4D5D5F886
:100AD0009000D4F8841020F440700843C5F89000CA
:100AE0002EE7404505D10121201D01F0CDF900B1CF
:100AF00006462068000317D5D5F88800216F20F03E
:100B000040600843C5F88800206FB84204D1E86807
:100B100040F48010E86007E0404505D10121201D28
:100B200001F0B2F900B106462068400317D5D5F8A8
:100B30008800616F20F040600843C5F88800606F4E
:100B4000B84204D1E86840F48010E86007E040450E
:100B500005D10121201D01F097F900B1064620883A
:100B600040041AD5D5F88800A16F20F04050084302
:100B7000C5F88800A06FB0F1805F03D0B0F1005FCE
:100B800005D00AE00221201D01F07EF903E00221D8
:100B9000584601F00FFA00B106462088000407D538
:100BA000D5F88800E16F20F080400843C5F8880040
:100BB0002068C00307D555F8880FD4F8801020F0BE
:100BC000004008432860304600F004B8001002409E
:100BD0000070004018BCBDE8E08F00002DE9F04730
:100BE0000F46050058D0404E306800F00700B8426C
:100BF00009D2306820F0070038433060306800F0D8
:100C00000700B84248D12878384CC0072CD0686813
:100C1000032811D0022812D0216898B14905002973
:100C20003ADAA16821F003010143A160FFF734FD26
:100C3000804641F2883910E021688901EFE7216898
:100C40008903ECE78907EAE7FFF726FDA0EB080137
:100C5000494502D90320BDE8F087A068696800F023
:100C60000C00B0EB810FEFD12878800705D5A06884
:100C7000A96820F0F0000843A060306800F0070089
:100C8000B8420BD9306820F0070038433060306834
:100C900000F00700B84201D00120DCE728784007C7
:100CA00005D5A068E96820F4E0600843A0602878D2
:100CB000000706D5A068296920F4605040EAC10009
:100CC000A06000F03FF8A168094AC1F30311515C2C
:100CD00001F01F01C8400749086007480068BDE8E7
:100CE000F047FFF7FDBC000000200240001002406A
:100CF0007028000818000020100000200548064950
:100D000000688968054AC1F30221515C01F01F01A6
:100D1000C84070471800002000100240B0280008AA
:100D20000548064900688968054AC1F3C221515C3B
:100D300001F01F01C8407047180000200010024059
:100D4000B028000870B52549002318468A68CC6889
:100D500012F00C0204F00306214C4FEA640509D09E
:100D60000C2A05D0042A32D0082A00D1284670BDAA
:100D7000012E10D10B681B0704D4D1F89430C3F3B3
:100D8000032302E00B68C3F30313164E56F8233017
:100D9000DAB10C2AEBD1C86800F00300022818D0A1
:100DA000032818D01846CA68CB68C2F30212C3F3EE
:100DB00006234343521CB3FBF2F2C868C0F3416000
:100DC000401C4000B2FBF0F070BD184670BD2046DC
:100DD00070BD2046E7E72846E5E700000010024026
:100DE0000024F400802800082DE9F84304006FD0A7
:100DF000FE4DA86800F00C06E86800F003072078B4
:100E0000C00664D576B10C2E01D1012F0AD0A0699D
:100E1000002828687AD040F001002860FFF73CFCE9
:100E200080465DE02868800702D5A0690028DED0F2
:100E3000216A2868000703D5286800F0F00004E064
:100E4000D5F89400F02202EA1010814216D9084623
:100E500001F034F900283BD1286840F008002860F0
:100E60002868216A20F0F000084328606868E1697A
:100E700020F47F4040EA0120686016E0286840F0D6
:100E8000080028602868216A20F0F00008432860E4
:100E90006868E16920F47F4040EA0120686026B973
:100EA000206A01F00BF90028D5D1FFF74BFFA968A4
:100EB000CF4AC1F30311515C01F01F01C840CD4975
:100EC0000860CD480068FFF70BFC00287ED12EE0BB
:100ED000CAE000BFFFF7E0FBA0EB0800022876D8CD
:100EE00028688007F6D5286840F008002860286840
:100EF000216A20F0F000084328606868E16920F466
:100F00007F4040EA0120686011E0FFE720F0010027
:100F10002860FFF7C1FB804606E000BFFFF7BCFB7F
:100F2000A0EB08000228DAD828688007F6D42078D9
:100F3000C00740D0082E18D00C2E01D1032F14D09A
:100F40006068B0F5803F17D0B0F5A02F286817D0A3
:100F500020F480302860286820F4802028606068B1
:100F6000E0B1FFF799FB804614E02868800322D5A2
:100F70006068002878D01EE0286840F48030EDE7F3
:100F800040F480202860F7E7FFF786FBA0EB08001D
:100F90006428A4D828688003F6D50CE0FFF77CFB12
:100FA000804605E0FFF778FBA0EB0800642896D8A0
:100FB00028688003F6D4207880073BD5042E11D012
:100FC0000C2E01D1022F0DD0E06801E092E1F1E09A
:100FD000002828681ED040F480702860FFF75CFB72
:100FE00007460CE0286840050CD5E0680028C1D011
:100FF00008E000BFFFF750FBC01B022893D8286809
:101000004005F7D56868217C20F0F85040EA01607F
:1010100068600FE020F480702860FFF73DFB074612
:1010200005E000BFFFF738FBC01B0228B1D82868D5
:101030004005F7D42078000729D560690028D5F845
:10104000940012D040F00100C5F89400FFF724FB93
:10105000074604E0FFF720FBC01B022899D8D5F80B
:1010600094008007F6D512E000E120F00100C5F8F9
:101070009400FFF711FB074605E000BFFFF70CFBEC
:10108000C01B022885D8D5F894008007F6D42078B4
:10109000400766D5A86D0027C00008D4A86D40F0B1
:1010A0008050A865A86D012700F08050009053483B
:1010B0000168C90512D40168814641F4807101605C
:1010C000FFF7EAFA804605E0FFF7E6FAA0EB080032
:1010D00002286FD8D9F80000C005F5D5A06801280E
:1010E00016D00528D5F8900017D020F00100C5F8DB
:1010F0009000D5F8900020F0040000BFC5F89000E3
:10110000A06841F28839C0B1FFF7C6FA80460FE007
:10111000D5F8900040F00100F0E740F00400C5F879
:101120009000F5E7FFF7B8FAA0EB0801494541D870
:10113000D5F890008007F5D50EE0FFF7ADFA8046B0
:1011400006E000BFFFF7A8FAA0EB0801494531D837
:10115000D5F890008007F5D41FB1A86D20F080501D
:10116000A865A06A38B302280AD00C2E7ED0286861
:1011700020F080702860286810F0205F77D0AAE007
:10118000E868E26A00F0030191422BD1216B00F084
:10119000700209011039914224D1626B00F4FE41C2
:1011A000B1EB022F1ED1A26B00F40031072A03D04D
:1011B000012202E09DE089E00022914212D1A18F3C
:1011C00000F4C00249084905A1F50011914209D176
:1011D00094F8401000F0C06049084906A1F1007180
:1011E00081425CD00C2E41D0286809E000100240FA
:1011F0007028000818000020100000200070004037
:1012000040017ED42868C0007BD4286820F080701C
:101210002860FFF741FA064605E000BFFFF73CFAF9
:10122000801B022865D828688001F7D4D4E90B0117
:101230006FF00F0202EB01110843A18F520449081D
:1012400002EB4151626B41EA0221084394F84010DD
:101250004FF07E42490802EB41610843A16B090946
:1012600040EA4140E968284A114001E049E02EE0A7
:101270000843E860286840F080702860E86840F023
:101280008070E860FFF708FA044604E0FFF704FA0C
:10129000001B02282DD828688001F7D52FE0286888
:1012A00080012CD4286840F080702860E86840F005
:1012B0008070E860FFF7F0F9044604E0FFF7ECF90E
:1012C000001B022815D828688001F7D517E0E868C8
:1012D00020F00300E860E8680C490840E860FFF788
:1012E000DBF9044608E000BFFFF7D6F9001B02282F
:1012F00002D90320BDE8F88328688001F4D40020D7
:10130000F8E70120F6E700008C809DF9FFFFEEFE74
:1013100010B5401EB0F1807F01D3012010BD4FF009
:10132000E02460610F21601701F096F90020A061B0
:1013300007202061002010BD10B5040002D0606FAE
:1013400010B107E0012010BD002084F87000204695
:1013500000F026F8242060672068016821F0010170
:101360000160204600F0EEFF0128ECD0606A10B169
:10137000204600F057FF2068416821F49041416009
:101380002068816821F02A0181602068016841F0AD
:10139000010101602046BDE8104000F0A7BF000039
:1013A00010B586B0044614216846FEF77AFF13494B
:1013B000206888421FD11248816D41F40031816557
:1013C000816D01F400310591C16C41F00101C164EE
:1013D000C06C694600F0010005900C2000900220CE
:1013E00001900020029003200390072004904FF00A
:1013F0009040FFF719F806B010BD0000004400400F
:1014000000100240FEE7000007490968C9070AD03A
:10141000054980390968C90705D04FF060410A685D
:10142000002AFCD008707047800E00E030B587B00D
:1014300014216846FEF735FF1F48C16C41F00401D6
:10144000C164C16C01F004010591C16C41F08001DF
:10145000C164C16C01F080010591C16C41F00101D2
:10146000C164C16C01F001010591C16C41F0020140
:10147000C164C06C4FF0904500F00200059000225E
:1014800020212846FFF703F94FF4005000900B4845
:101490000024CDE9010469460948FEF7C5FF202074
:1014A00000900120CDE90104694628460394FEF727
:1014B000BBFF07B030BD000000100240000021104B
:1014C000000800480D4810B50B4901604FF4E131A8
:1014D0004160002181600C22C160C0E90412816179
:1014E000C16101624162FFF727FF002803D0BDE818
:1014F0001040FEF797BF10BD0044004034010020AB
:10150000FEE7000070B50D460446242100F04EF9B8
:101510002946204600F01EFA0148206070BD0000F8
:101520003828000810B572B63F2181F3118862B6E1
:10153000C16879B1C368C17D491CCAB2C275017D59
:1015400091420ED3847D026952F82420C260827DCC
:1015500012B102E06E210EE08175817D491E817518
:101560000CE00024C460491C914207D0002080F3A5
:1015700011884FF49B71044800F084FC002080F334
:101580001188184610BD00000C28000810B572B66E
:101590003F2282F3118862B6C27D02B38B7813B109
:1015A000CB785B1CCB70521ED2B2C275037E9342C5
:1015B00000D90276C268C160002A17D0817D491C1B
:1015C0008175817D037D994201D100218175016979
:1015D000807D41F82020002080F3118810BD00207C
:1015E00080F31188D2210D4800F04CFC0C498A6828
:1015F00090F820004FF00103A0F1010003FA00F37E
:1016000042EA03028A60EFF305800028E3D100F08C
:1016100065FB0028DFD000F0E5FADCE70C280008C5
:101620000001002010B5B9B172B63F2383F31188D1
:1016300062B6C37DA2F57F44FF3C04D0D2B29A4289
:101640000CD201240BE0002BFBD1002080F3118889
:101650006E21234800F016FC6421FAE700248A7802
:1016600012B1CA78521CCA7084B35B1EDAB2C2755A
:10167000037E934200D90276C268002A06D0437DD9
:10168000026942F82310417DB9B118E0C1601549E3
:101690008A6890F820004FF00103A0F1010003FADE
:1016A00000F342EA03028A60EFF3058050B900F0CC
:1016B00015FB38B100F096FA04E0017D4175417DDB
:1016C000491E4175002080F3118806E0FFE70020E5
:1016D00080F31188084600F073F8204610BD000022
:1016E0000C280008000100202DE9F04117460C46A7
:1016F0000546EFF30580089E069918B914B1202C11
:1017000000D811B14FF4967120E01A46394605F120
:101710000C0000F021F885F82040284600F028F859
:10172000286890B1026831462846904772B63F203B
:1017300080F3118862B600F0D1FA08B100F052FAD5
:10174000002080F31188BDE8F081C521014800F038
:1017500099FB0000542800080023036041600272D6
:101760000AB143728372521CC272C17A017370470C
:1017700010B590F820104A1E1F2A03D8094A52F8C3
:1017800021301BB16421084800F07CFB72B63F2376
:1017900083F3118862B642F82100002080F311889B
:1017A00010BD00002000002000280008002905D0FE
:1017B0005FF0000200F8012B491EFBD170470000CA
:1017C00010B5817800290DD072B63F2282F31188BE
:1017D00062B6C278012A06D9C178491EC1700020BC
:1017E00080F3118810BD002282F311880A4A491E35
:1017F0001268914204D34FF4CD71084800F042FBC7
:10180000074A01EB810102EB81030146BDE810406C
:101810000022184600F07EBA0000002028280008A8
:10182000A400002010B50D480024202104600C48BD
:1018300004600C4804600C48FFF7B8FF84210B4893
:10184000FFF7B4FF0C210A48FFF7B0FF0848047007
:1018500020218170BDE8104000F012BA0000002085
:101860000400002008000020E000002020000020EC
:10187000000100207047000072B63F2080F31188FD
:1018800062B600200749887000F028FA08B100F01D
:10189000A9F9FFF7EFFF002080F3118800F01CFA90
:1018A000FCE700000001002070B5284901EB00149E
:1018B000254620E0A86868B12CB1A86860600020C7
:1018C000A86061680AE0002080F311886E2120483A
:1018D00000F0D8FA002080F3118870BD888998B193
:1018E0008889401E88818889D0B10C46002080F309
:1018F0001188BFF36F8F72B63F2080F3118862B6F4
:1019000061680029EAD1D5E748686060C87800F0CE
:101910007F00C870002080F31188BFF36F8FEAE763
:101920008868CA8912B18A810C4605E04A686260FB
:10193000CA7802F07F02CA70002282F3118802681E
:10194000D3684FF6FF729847D5E70000E00000200B
:101950004C280008024A0260024AC0E9012170478F
:10196000E8270008D11A00082DE9F043446887B041
:101970000F46054614B1A868A04202D04FF4C871C2
:101980004AE0AE6839462846B047022802D12E49BF
:101990002846B0470028F4D0082850D3A8682A4F1A
:1019A0008DE85100083708E039462846A04703284B
:1019B00002D125492846A047AC68B442F4D1694613
:1019C000284600F087F8DFF8808004006F4608D4CE
:1019D0004FEA080657F82420311D28469047641E18
:1019E000F8D5DFF86490009C09F10C09AC6021E0A7
:1019F000A8680026009002E0761C47F82600AA6836
:101A0000114928469047A868A042F5D10098A860DF
:101A1000062E05DB4FF4CD710B48103800F032FA7A
:101A20004FEA080457F82620211D28469047761EC5
:101A3000F8D5009C49462846A0470828D8D06C60B5
:101A4000AC6007B0BDE8F083F0270008F0B50546AC
:101A500087B0D5E9000620B1AA6812B11A488642BB
:101A600001D0C8210EE028469047082801D0D22195
:101A700008E06F46AA680024009208E0641C062C67
:101A800003DBDC21114800F0FDF947F824200F4961
:101A9000284610319047AA68B242EFD10B4E009809
:101AA0001036A86057F82420311D28469047641E40
:101AB000F8D50649009E1C312846B0470828D9D0E1
:101AC0006E60AE6007B0F0BDD11A0008E0270008D4
:101AD000042070472DE9F05F81463F488D680A6811
:101AE0000E464FF0FF348346954201D1014612E085
:101AF0003949484608399047D9F80880484645454D
:101B000001D1002464E034490839A847D9F8080015
:101B1000404503D159464846A847F2E73168884214
:101B200003D159464846A84752E02B490124C6F83C
:101B300004804FF0000A48460839D9F80870C047B9
:101B400013E0641CD9F8080046F82400D9F80820EE
:101B50004846AA4206D1062C02DB4FF4FF710DE085
:101B6000641E35E01C49083990470028E9D0BAF1D5
:101B7000000F2DD1062C05DB4FF4027116481838E2
:101B800000F080F959464846A84720465FF0040116
:101B900056F82020BA4215D0401EF9D5032917D097
:101BA000042559464846B847032803D10A49484600
:101BB0000839B847D9F80870204600BF56F82010F9
:101BC000B94201D1441E03E0401EF7D5032DE8D1F0
:101BD000204600F003B80000F827000830BCBDE83C
:101BE000C09F00002DE9F047224C26786578212E11
:101BF00002D20DB1212D02D34FF4FA7131E0002051
:101C00006070DFF8749000BF59F8257025700020CF
:101C100080F311883846FFF785FC804638684146D6
:101C20004268384690474046FFF7CAFD72B63F20EB
:101C300080F3118862B6F86828B9A06801216D1E8A
:101C4000A9408843A060A068B0FA80F0C0F12005E8
:101C5000B5420BD9A078A84208D2202D04D94FF460
:101C6000FF71064800F00EF9002DCDD12670BDE8B9
:101C7000F087000000010020200000205428000808
:101C800013480168134A11430160001D016841F0C7
:101C90007C510160001D01684FEA3242114301602E
:101CA0004FF0E0214968082201F0070102EBC10171
:101CB0004FF03F330A464FEA820202F1E022491E0A
:101CC000C2F8FC33F6D1016841F47F01016070472E
:101CD00018ED00E03F3F3F00704700000B4910B592
:101CE00088680A78B0FA80F0C0F12000824202D2FF
:101CF0008A78824201D3002010BD202804D94FF4F5
:101D0000CD71034800F0BEF8487010BD00010020FE
:101D10005428000810B5028AC3899A4205D2426845
:101D20008A4202D882688A4203D2C821084800F059
:101D3000A9F872B63F2282F3118862B602680A607F
:101D40000160018A491C0182002080F3118810BDC6
:101D50002F28000870B5054672B63F2080F3118821
:101D600062B6AC7D0020A87580F3118804E0687D20
:101D7000FFF79AFD641EE4B2002CF8D170BD00217B
:101D8000817570474FF46171014800F07BF80000E5
:101D90000C28000810B5044672B63F2080F3118865
:101DA00062B6E06800281AD11148E060E07DA0F139
:101DB0000100E0750F48816894F820204FF001037E
:101DC000A2F1010203FA02F341EA03018160EFF399
:101DD000058020B9FFF782FF08B1FFF703FFA07D60
:101DE000401CA075002080F31188012010BD000068
:101DF000082800080001002070B5C378848903F02A
:101E00000F03856835B12CB921B1022B02D20488A9
:101E1000042C04D24FF4C8710D4800F033F872B6A8
:101E20003F2484F3118862B68181C281C17809069A
:101E300009D4C17841F08001C170064901EB03115A
:101E40008A6842608860002080F3118870BD0000BD
:101E50004C280008E000002010B5042A01DB022B0A
:101E600004D34FF49671064800F00CF80024446047
:101E70008481C481028081608470C37010BD0000C1
:101E80004C280008704700002DE9F041444C0546FD
:101E90008846E0680026810728680DD0E16801F0D7
:101EA0000301814216D1A8B1E0686968C0F302104D
:101EB000401C88420ED120E0012804D0022805D021
:101EC000032807D108E02168890701E02168490556
:101ED000002907DB01265FE02168890302D421681D
:101EE0004903F5E7E1686A686FF00F0321F07301B9
:101EF00003EB021211430143E160206820F080608F
:101F00002060FEF7C9FB074605E000BFFEF7C4FBF3
:101F1000C01B022837D820680001F7D4B8F1000FA1
:101F200018D0B8F1010F1ED0287D4FF07E41400837
:101F300001EB4060A96840EA01202169194A11407B
:101F400008432061206840F080602060FEF7A4FB19
:101F500007461AE0A868E9680002090940EA41401A
:101F60002169114AEBE7288A1049400801EB4050EB
:101F7000A96840EA012021690D4AE0E7FEF78CFBE1
:101F8000C01B022801D9032606E020680001F5D510
:101F90002069A969084320613046BDE8F08100004E
:101FA00000100240FF80FFF9FF80FDFF0000E0FF0E
:101FB000FF809FFF2DE9F0413D4C06468846E068D2
:101FC0000025810730680DD0E16801F003018142EE
:101FD00016D1A8B1E0687168C0F30210401C8842B5
:101FE0000ED120E0012804D0022805D0032807D113
:101FF00008E02168890701E021684905002907DB1D
:10200000012551E02168890302D421684903F5E7DD
:10201000E16872686FF00F0321F0730103EB0212A5
:1020200011430143E160206820F080502060FEF7FA
:1020300033FB074605E000BFFEF72EFBC01B02285E
:1020400029D820688000F7D4B8F1000F15D0307C73
:102050004FF07E41400801EB4060B16840EA01204A
:102060006169144A114008436061206840F0805063
:102070002060FEF711FB07460FE0B068F168000230
:10208000090940EA414061690B4AEBE7FEF704FBAE
:10209000C01B022801D9032506E020688000F5D581
:1020A00060697169084360612846BDE8F0810000FD
:1020B00000100240FF80FFF9FF80FDFFF8B51C4DC6
:1020C00006460024A86DC00002D5FEF7A7FB0DE070
:1020D000A86D40F08050A865A86D00F08050009079
:1020E000FEF79CFBA96D21F08051A965B0F5007F3A
:1020F00004D0802E07D94FF003040AE0802E08D9BF
:10210000A02E01D804E001D1022402E0702E00D1FB
:1021100001240848016821F007012143016000689B
:1021200000F00700A04201D00120F8BD0020F8BD5A
:1021300000100240002002407047000010B5FEF77A
:10214000B1FA0020FFF7B0FB72B63F2080F3118890
:1021500062B6FFF7C3FD28B104494FF08050086014
:10216000BFF34F8F002080F3118810BD04ED00E015
:1021700030B5B9B0442122A8FEF793F8142133A852
:10218000FEF78FF888216846FEF78BF80224E001FD
:1021900025901020229426902C940120CDE92D40EA
:1021A0000A202F900720CDE9300422A83294FEF7B0
:1021B0001BFE0F20002533900320CDE93405369512
:1021C000042133A83795FEF709FD0F956846009462
:1021D000FEF72CFB2002FEF7EDFA39B030BD00000F
:1021E0000D48016841F4700101600C48016841F03C
:1021F00001010160002181600268094B1A40026000
:102200008214C260026822F4802202608161024965
:10221000C00380390860704788ED00E0001002407C
:10222000FFFFF6EA90F82410C90706D001684A6853
:10223000836A22F400321A434A6090F82410890716
:1022400006D501684A68C36A22F480321A434A609C
:1022500090F82410490706D501684A68036B22F4F8
:1022600080221A434A6090F82410090706D50168B5
:102270004A68436B22F400421A434A6090F82410E3
:10228000C90606D501688A68836B22F480521A4316
:102290008A6090F82410890606D501688A68C36BA5
:1022A00022F400521A438A6090F82410490611D58E
:1022B00001684A68036C22F480121A434A60016C78
:1022C000B1F5801F06D101684A68436C22F4C00250
:1022D0001A434A6090F82410090606D501684A6836
:1022E000806C22F4002202434A607047F8B5002651
:1022F0000446C667FEF7D0F90546206800686FF00F
:102300007E47000708D52B4600224FF400112046D7
:10231000009700F03DF960B92068006840070AD5D1
:102320002B4600224FF480012046009700F030F940
:1023300008B10320F8BD20206067A06784F87060B2
:102340000020F8BD2DE9F04104460168806822694B
:10235000E3691043626900251A431043824F0A68FB
:10236000824B1A4002430A6020684168E26821F407
:102370004051114341602168A069B94201D0226AED
:1023800010438A6822F4306202438A6078492268E6
:1023900078488A420DD1D0F8880010F0030006D0AA
:1023A000012866D0022854D0032851D163E00120CF
:1023B0004FE071498A420BD1D0F8880010F00C0030
:1023C00047D0042845D0082851D00C2840D152E0ED
:1023D0006A498A420BD1D0F8880010F0300038D01A
:1023E000102846D0202842D0302831D143E064491B
:1023F0008A420BD1D0F8880010F0C00029D04028C4
:1024000037D0802833D0C02822D134E05D498A42B9
:102410000ED1D0F8880010F440701AD0B0F5807F4B
:1024200027D0B0F5007F22D0B0F5407F10D122E058
:10243000BA420DD1D0F8880010F4406009D0B0F550
:10244000806F16D0B0F5006F11D0B0F5406F12D08C
:1024500010204D4B00264FF40041BA422ED160B1FE
:10246000022813D004280BD0082874D10DE00220D4
:10247000EFE70420EDE70820EBE7FEF73FFC01E083
:10248000FEF760FC030001D169E00B46626802EBD5
:10249000420098425FD8B3EB023F5CD8190E180295
:1024A00073084FEA3207C01959410023FDF7BEFEF9
:1024B000364AA0F5407191424FD94CE0E2694FF69F
:1024C000EF778A4228D1092845D2DFE800F00508D5
:1024D00011440D4444441000FEF710FC01E0FEF7E7
:1024E0001FFC030004D13AE0FEF72CFCF9E70B4691
:1024F0006068590001EB5001B1FBF0F080B2A0F12F
:102500001001B94227D84FF6F0710140C0F34200E4
:1025100001432068C16022E009281CD2DFE800F0F6
:102520000508111B0D1B1B1B1000FEF7E7FB01E04C
:10253000FEF7F6FB030004D111E0FEF703FCF9E718
:102540000B46606803EB5001B1FBF0F080B2A0F1E4
:102550001001B94201D9012501E02168C860266651
:1025600028466666BDE8F08100800040F369FFEF11
:102570000038014000100240004400400048004084
:10258000004C0040005000400024F400FFFC0F000D
:102590002DE9F0479A4617460E4604464FF00009CB
:1025A0004FF02008089D39E0681C37D0FEF774F81A
:1025B000A0EB0A00A84222D80DB3206801684907A1
:1025C0002CD5C069C043000528D421684FF40060B1
:1025D00008622068016821F4D07101602068816878
:1025E00021F001018160C4F87480C4F87880C4F8D7
:1025F0007C8000BF84F870900320BDE8F0872068DD
:10260000016821F4D07101602068816821F0010126
:102610008160C4F87480C4F87880EBE72068C069F2
:1026200036EA000004D00020B842BDD00020E4E724
:102630000120F9E7FEE700000FB4054B10B503A930
:10264000044A029800F027F810BC5DF814FB000063
:10265000752700081C0000200907090E002804DB6C
:1026600000F1E02080F80014704700F00F0000F146
:10267000E02080F8141D704702E008C8121F08C14E
:10268000002AFAD170477047002001E001C1121FF3
:10269000002AFBD170472DE9F84F994692468846AB
:1026A0000546002706E025280AD051464A469047AD
:1026B0006D1C7F1C28780028F5D1384600F056B8EC
:1026C000002315F8011F18462E2915D115F8011FF2
:1026D00004232A290DD06FF02F022978A1F13004AC
:1026E000092C09D800EB800002EB400008446D1C67
:1026F000F3E758F8040B6D1C2A78002ADDD0632A12
:1027000007D0732A0FD0104651464A4690477F1C87
:102710002AE018F8042B8DF8002000218DF8011014
:102720006E46012103E058F8046B4FF0FF315A0761
:102730004FF0000401D409E0641C84420BDA8C429F
:10274000FADB325D002AF7D105E0641C8C42FCDB29
:10275000305D0028F9D1274404E016F8010B5146FA
:102760004A469047641EF8D26D1CA3E718BCBDE82A
:10277000E08F0000034A914201D1FEF745BE4FF0C1
:10278000FF3070471C0000203EB5FDF793FFFFF7B8
:10279000EFFCFEF74BFEFEF795FEFFF743F8FDF763
:1027A000BDFDFDF7EFFD0B4801680A686AB1002125
:1027B0000091019102910A239468074A012100685F
:1027C000A047BDE83E40FFF757B864210348FFF734
:1027D00059FB00006C2800080C0100205728000855
:1027E0007165705F68736D004D1A00086919000803
:1027F00000000000010000000200000003000000D3
:1028000071665F61637400000000000071665F61C3
:10281000637471007F1D0008551D0008E91600084B
:10282000951D0008851D000871665F64796E007152
:10283000665F6D656D0000004D1A0008691900089B
:10284000E9160008251600088D15000871665F74EA
:10285000696D6500716B002E2E2F436F72652F53CB
:1028600072632F6D61696E2E63000000B401002059
:102870000000000000000000010203040607080930
:10288000A0860100400D0300801A060000350C00F0
:1028900040420F0080841E0000093D0000127A00B3
:1028A0000024F40000366E010048E801006CDC02F0
:1028B0000000000001020304D828000800000020E6
:1028C0002000000078260008F828000820000020DA
:1028D000C805000088260008000000000000000075
:1028E00000000000010000001000000000000000D7
:0828F00000093D00000000009A
:040000050800018965
:00000001FF
